{"abi":[{"type":"function","name":"businessExists","inputs":[{"name":"","type":"string","internalType":"string"}],"outputs":[{"name":"","type":"bool","internalType":"bool"}],"stateMutability":"view"},{"type":"function","name":"businesses","inputs":[{"name":"","type":"string","internalType":"string"}],"outputs":[{"name":"owner","type":"address","internalType":"address"},{"name":"name","type":"string","internalType":"string"},{"name":"isActive","type":"bool","internalType":"bool"},{"name":"totalReceived","type":"uint256","internalType":"uint256"},{"name":"transactionCount","type":"uint256","internalType":"uint256"}],"stateMutability":"view"},{"type":"function","name":"getBusinessInfo","inputs":[{"name":"businessId","type":"string","internalType":"string"}],"outputs":[{"name":"","type":"tuple","internalType":"struct LocalBasePayment.Business","components":[{"name":"owner","type":"address","internalType":"address"},{"name":"name","type":"string","internalType":"string"},{"name":"isActive","type":"bool","internalType":"bool"},{"name":"totalReceived","type":"uint256","internalType":"uint256"},{"name":"transactionCount","type":"uint256","internalType":"uint256"}]}],"stateMutability":"view"},{"type":"function","name":"getUserTotalSpent","inputs":[{"name":"user","type":"address","internalType":"address"}],"outputs":[{"name":"","type":"uint256","internalType":"uint256"}],"stateMutability":"view"},{"type":"function","name":"payBusiness","inputs":[{"name":"businessId","type":"string","internalType":"string"}],"outputs":[],"stateMutability":"payable"},{"type":"function","name":"registerBusiness","inputs":[{"name":"businessId","type":"string","internalType":"string"},{"name":"name","type":"string","internalType":"string"}],"outputs":[],"stateMutability":"nonpayable"},{"type":"function","name":"toggleBusinessStatus","inputs":[{"name":"businessId","type":"string","internalType":"string"}],"outputs":[],"stateMutability":"nonpayable"},{"type":"function","name":"userSpent","inputs":[{"name":"","type":"address","internalType":"address"}],"outputs":[{"name":"","type":"uint256","internalType":"uint256"}],"stateMutability":"view"},{"type":"function","name":"withdrawPayments","inputs":[{"name":"businessId","type":"string","internalType":"string"}],"outputs":[],"stateMutability":"nonpayable"},{"type":"event","name":"BusinessRegistered","inputs":[{"name":"businessId","type":"string","indexed":true,"internalType":"string"},{"name":"owner","type":"address","indexed":true,"internalType":"address"},{"name":"name","type":"string","indexed":false,"internalType":"string"}],"anonymous":false},{"type":"event","name":"PaymentMade","inputs":[{"name":"businessId","type":"string","indexed":true,"internalType":"string"},{"name":"customer","type":"address","indexed":true,"internalType":"address"},{"name":"amount","type":"uint256","indexed":false,"internalType":"uint256"}],"anonymous":false},{"type":"event","name":"PaymentWithdrawn","inputs":[{"name":"businessId","type":"string","indexed":true,"internalType":"string"},{"name":"owner","type":"address","indexed":true,"internalType":"address"},{"name":"amount","type":"uint256","indexed":false,"internalType":"uint256"}],"anonymous":false}],"bytecode":{"object":"0x608060405234801561001057600080fd5b50610f3f806100206000396000f3fe6080604052600436106100865760003560e01c80636ce67a66116100595780636ce67a66146101295780638d08edec146101565780639ee80570146101a1578063b45e1c4e146101c1578063c0a0117a146101f257600080fd5b80631a5ee8c91461008b5780631b2de05f146100d4578063283ee92b146100f65780635d910ec114610109575b600080fd5b34801561009757600080fd5b506100c16100a6366004610b0b565b6001600160a01b031660009081526002602052604090205490565b6040519081526020015b60405180910390f35b3480156100e057600080fd5b506100f46100ef366004610bde565b61021f565b005b6100f4610104366004610bde565b6102f7565b34801561011557600080fd5b506100f4610124366004610c1b565b6104e2565b34801561013557600080fd5b50610149610144366004610bde565b6106d0565b6040516100cb9190610ccf565b34801561016257600080fd5b50610191610171366004610bde565b805160208183018101805160018252928201919093012091525460ff1681565b60405190151581526020016100cb565b3480156101ad57600080fd5b506100f46101bc366004610bde565b61086b565b3480156101cd57600080fd5b506101e16101dc366004610bde565b610a39565b6040516100cb959493929190610d29565b3480156101fe57600080fd5b506100c161020d366004610b0b565b60026020526000908152604090205481565b80336001600160a01b031660008260405161023a9190610d6a565b908152604051908190036020019020546001600160a01b03161461029a5760405162461bcd60e51b81526020600482015260126024820152712737ba10313ab9b4b732b9b99037bbb732b960711b60448201526064015b60405180910390fd5b6000826040516102aa9190610d6a565b9081526040519081900360200181206002015460ff1615906000906102d0908590610d6a565b908152604051908190036020019020600201805491151560ff199092169190911790555050565b806000816040516103089190610d6a565b9081526040519081900360200190206002015460ff166103605760405162461bcd60e51b8152602060048201526013602482015272427573696e657373206e6f742061637469766560681b6044820152606401610291565b600034116103b05760405162461bcd60e51b815260206004820152601e60248201527f5061796d656e74206d7573742062652067726561746572207468616e203000006044820152606401610291565b6001826040516103c09190610d6a565b9081526040519081900360200190205460ff166104195760405162461bcd60e51b8152602060048201526017602482015276109d5cda5b995cdcc8191bd95cc81b9bdd08195e1a5cdd604a1b6044820152606401610291565b6000808360405161042a9190610d6a565b908152602001604051809103902090503481600301600082825461044e9190610d86565b92505081905550600181600401600082825461046a9190610d86565b9091555050336000908152600260205260408120805434929061048e908490610d86565b909155505060405133906104a3908590610d6a565b604051908190038120348252907fa4063949d46df8966b0b0da701810cd0898aa91bbd685924f99e15a878b5b9c79060200160405180910390a3505050565b6001826040516104f29190610d6a565b9081526040519081900360200190205460ff16156105525760405162461bcd60e51b815260206004820152601760248201527f427573696e65737320616c7265616479206578697374730000000000000000006044820152606401610291565b600081511161059a5760405162461bcd60e51b81526020600482015260146024820152734e616d652063616e6e6f7420626520656d70747960601b6044820152606401610291565b6040518060a00160405280336001600160a01b031681526020018281526020016001151581526020016000815260200160008152506000836040516105df9190610d6a565b90815260405160209181900382019020825181546001600160a01b0319166001600160a01b0390911617815590820151600182019061061e9082610e36565b5060408281015160028301805460ff19169115159190911790556060830151600383015560809092015160049091015551600190819061065f908590610d6a565b908152604051908190036020018120805492151560ff1990931692909217909155339061068d908490610d6a565b60405180910390207f803f97acb6e28d7d40a69f5880d00ad84394e87b28fd60a5507a63f76f9e931b836040516106c49190610ef6565b60405180910390a35050565b61070d6040518060a0016040528060006001600160a01b031681526020016060815260200160001515815260200160008152602001600081525090565b60018260405161071d9190610d6a565b9081526040519081900360200190205460ff166107765760405162461bcd60e51b8152602060048201526017602482015276109d5cda5b995cdcc8191bd95cc81b9bdd08195e1a5cdd604a1b6044820152606401610291565b6000826040516107869190610d6a565b90815260408051918290036020908101832060a0840190925281546001600160a01b03168352600182018054918401916107bf90610dad565b80601f01602080910402602001604051908101604052809291908181526020018280546107eb90610dad565b80156108385780601f1061080d57610100808354040283529160200191610838565b820191906000526020600020905b81548152906001019060200180831161081b57829003601f168201915b5050509183525050600282015460ff16151560208201526003820154604082015260049091015460609091015292915050565b80336001600160a01b03166000826040516108869190610d6a565b908152604051908190036020019020546001600160a01b0316146108e15760405162461bcd60e51b81526020600482015260126024820152712737ba10313ab9b4b732b9b99037bbb732b960711b6044820152606401610291565b600080836040516108f29190610d6a565b9081526040519081900360200190206003810154909150806109565760405162461bcd60e51b815260206004820152601760248201527f4e6f207061796d656e747320746f2077697468647261770000000000000000006044820152606401610291565b600060038301819055604051339083908381818185875af1925050503d806000811461099e576040519150601f19603f3d011682016040523d82523d6000602084013e6109a3565b606091505b50509050806109e85760405162461bcd60e51b815260206004820152601160248201527015da5d1a191c985dd85b0819985a5b1959607a1b6044820152606401610291565b60405133906109f8908790610d6a565b604051908190038120848252907ff030d3d7e1e53aea460905dc1909b616eb9a4e0e796a0ed2870855b30c0581a69060200160405180910390a35050505050565b8051602081830181018051600082529282019190930120915280546001820180546001600160a01b039092169291610a7090610dad565b80601f0160208091040260200160405190810160405280929190818152602001828054610a9c90610dad565b8015610ae95780601f10610abe57610100808354040283529160200191610ae9565b820191906000526020600020905b815481529060010190602001808311610acc57829003601f168201915b5050505060028301546003840154600490940154929360ff9091169290915085565b600060208284031215610b1d57600080fd5b81356001600160a01b0381168114610b3457600080fd5b9392505050565b634e487b7160e01b600052604160045260246000fd5b600082601f830112610b6257600080fd5b813567ffffffffffffffff80821115610b7d57610b7d610b3b565b604051601f8301601f19908116603f01168101908282118183101715610ba557610ba5610b3b565b81604052838152866020858801011115610bbe57600080fd5b836020870160208301376000602085830101528094505050505092915050565b600060208284031215610bf057600080fd5b813567ffffffffffffffff811115610c0757600080fd5b610c1384828501610b51565b949350505050565b60008060408385031215610c2e57600080fd5b823567ffffffffffffffff80821115610c4657600080fd5b610c5286838701610b51565b93506020850135915080821115610c6857600080fd5b50610c7585828601610b51565b9150509250929050565b60005b83811015610c9a578181015183820152602001610c82565b50506000910152565b60008151808452610cbb816020860160208601610c7f565b601f01601f19169290920160200192915050565b602080825282516001600160a01b03168282015282015160a06040830152600090610cfd60c0840182610ca3565b905060408401511515606084015260608401516080840152608084015160a08401528091505092915050565b6001600160a01b038616815260a060208201819052600090610d4d90830187610ca3565b941515604083015250606081019290925260809091015292915050565b60008251610d7c818460208701610c7f565b9190910192915050565b80820180821115610da757634e487b7160e01b600052601160045260246000fd5b92915050565b600181811c90821680610dc157607f821691505b602082108103610de157634e487b7160e01b600052602260045260246000fd5b50919050565b601f821115610e3157600081815260208120601f850160051c81016020861015610e0e5750805b601f850160051c820191505b81811015610e2d57828155600101610e1a565b5050505b505050565b815167ffffffffffffffff811115610e5057610e50610b3b565b610e6481610e5e8454610dad565b84610de7565b602080601f831160018114610e995760008415610e815750858301515b600019600386901b1c1916600185901b178555610e2d565b600085815260208120601f198616915b82811015610ec857888601518255948401946001909101908401610ea9565b5085821015610ee65787850151600019600388901b60f8161c191681555b5050505050600190811b01905550565b602081526000610b346020830184610ca356fea264697066735822122063101be668ca1f224af7f09a93a59aca8bced93b5aa67dcc24dbb21be2a67f8e64736f6c63430008130033","linkReferences":{}},"methodIdentifiers":{"businessExists(string)":"8d08edec","businesses(string)":"b45e1c4e","getBusinessInfo(string)":"6ce67a66","getUserTotalSpent(address)":"1a5ee8c9","payBusiness(string)":"283ee92b","registerBusiness(string,string)":"5d910ec1","toggleBusinessStatus(string)":"1b2de05f","userSpent(address)":"c0a0117a","withdrawPayments(string)":"9ee80570"},"id":21}